:1010000000B200209192000031B102006592000010
:1010100065920000659200006592000000000000EB
:10102000000000000000000000000000B593000078
:10103000659200000000000021930000659200000E
:10104000D5950000F1E00100D5950000D595000090
:10105000D5950000D5950000D5950000D5950000E8
:10106000D5950000D5950000D5950000D5950000D8
:10107000D5950000D5950000D5950000D5950000C8
:10108000D5950000D5950000D5950000D5950000B8
:10109000D5950000D5950000D5950000D5950000A8
:1010A000D5950000D5950000D5950000D595000098
:1010B000D5950000D5950000D5950000D595000088
:1010C000D5950000D5950000D5950000D595000078
:1010D000D5950000D5950000D5950000D595000068
:1010E000D5950000D5950000D5950000D595000058
:1010F000D5950000D5950000D5950000D595000048
:1011000053B94AB9002908BF00281CBF4FF0FF316E
:101110004FF0FF3000F00CB8ADF1080C6DE904CED3
:1011200000F008F8DDF804E0DDE9022304B07047C0
:10113000704700BF2DE9F04786468C460846089E5A
:10114000154674461946002B40F0C2808542B2FA1B
:1011500082F245D94AB1C2F1200300FA02FC2EFA0C
:1011600003F3954043EA0C0C94404FEA154EA8B2A5
:10117000BCFBFEF8230C0EFB18CC08FB00F943EA7D
:101180000C43994528D9EB1808F1FF3704D299454B
:1011900002D9A8F102072B44A3EB0903A4B2B3FBC5
:1011A000FEFC0EFB1C330CFB00F044EA0344A0429F
:1011B00014D92C190CF1FF3304D2A04202D9ACF19E
:1011C00002032C44241A43EA07401EB1D4400023F2
:1011D00034607360BDE8F0874746DDE76346F1E7BA
:1011E00092BB431B01214FEA154EAFB2B3FBFEFC8D
:1011F000200C0EFB1C330CFB07F840EA0343984518
:1012000062D9EB180CF1FF3004D2984502D9ACF149
:1012100002002B44A3EB0803A4B2B3FBFEFC0EFBBD
:101220001C330CFB07F744EA0344A7424ED92C19A0
:101230000CF1FF3304D2A74202D9ACF102032C44D3
:10124000E41B43EA0040C0E7C2F1200320FA03F1A7
:10125000954090402EFA03F303434FEA154EAFB288
:10126000B1FBFEFC0EFB1C10190C0CFB07F841EA4D
:101270000041884504FA02F422D969180CF1FF30C4
:1012800004D2884502D9ACF102002944A1EB08013F
:101290009BB2B1FBFEFC0EFB1C110CFB07F743EAF3
:1012A00001439F420ED9EB180CF1FF3104D29F424B
:1012B00002D9ACF102012B44DB1B41EA004192E769
:1012C0006046E3E76146F7E76046A3E76346B7E7B2
:1012D000834206D916B9002108467BE7C6E900E03B
:1012E000F9E7B3FA83F78FB9834201D3724508D87F
:1012F000BEEB020460EB030301209C461EB90021F3
:1013000068E73846FAE7C6E9004CF8E7C7F1200C71
:10131000BB4022FA0CF41C432EFA0CF120FA0CF319
:10132000B84001434FEA14490EFA07F5B3FBF9F848
:101330001FFA84FE09FB18300B0C08FB0EFA43EA77
:1013400000439A4502FA07F240D9E31808F1FF304A
:1013500004D29A4502D9A8F102002344A3EB0A0360
:1013600089B2B3FBF9F809FB183308FB0EFE41EA1A
:1013700003418E452CD9611808F1FF3304D28E4504
:1013800002D9A8F10203214443EA0040A0FB0298DD
:10139000A1EB0E014145CE46434602D306D14D4551
:1013A00004D2B9EB020E68EB04030138002EA6D07C
:1013B000B5EB0E0261EB030101FA0CFC22FA07F314
:1013C0004CEA0303F940C6E9003198E74046C5E717
:1013D0004346D9E710F8012B11F8013B012A28BF39
:1013E0009A42F7D0D01A7047034611F8012B03F840
:1013F000012B002AF9D17047034613F8012B002A6C
:10140000FBD1181A01387047F7B5404DD5F85C315B
:10141000996811F0010124D101AA40F6034009F0B6
:10142000C1F8044600286DD1019CE3681B78ABB974
:101430000AF05AFBBFF35B8FD5F8D430BFF35B8F54
:1014400005F1D40203F00903BFF35B8F52E8001FDC
:1014500042E800300028F9D1BFF35B8F204620F02E
:1014600001F901AA002141F2030009F09BF80446AA
:10147000002847D1019B264EDA68D2F80100D2F845
:10148000051003C6184620F0EDF8214601AA41F2E6
:10149000010009F087F80446A0BB0198C3685A7898
:1014A00085F870205A88A5F872201A7985F871207D
:1014B000B3F80720A5F87420B3F80530A5F8763006
:1014C00020F0D0F8214601AA41F2020009F06AF8A2
:1014D0000446B8B9019FFA68531C4132186859682C
:1014E000344603C4083393422646F7D1094829F00D
:1014F000FCFE384620F0B6F895F87C305B060BD43D
:101500006FF01204204603B0F0BD00BF4000002081
:10151000B8000020C000002001AA002142F2030010
:1015200009F040F804460028ECD1019BB64EDA6879
:10153000D2F80100D2F8051003C6184620F092F840
:10154000214601AA42F2020009F02CF804460028C4
:10155000D8D1019CE368B3F8012091B249B1D978A0
:1015600039B1A5F80421DA78114606F128002FF0E8
:101570007BF9204620F076F895F87C6016F020067E
:1015800018D1022140F66D4008F0B0FF0446002853
:1015900000F0CC8002210C302DF071FF012303708C
:1015A00046702146324640F66D4008F0FBFF044687
:1015B0000028A7D195F89C301F0712D501AA002159
:1015C00042F21C0008F0EEFF044600289AD1019870
:1015D000C368D3F80120D3F80530C5E9382320F0DB
:1015E00041F895F8D8309E0624D50DF102016846E1
:1015F0002AF09CF90446002884D1042142F22400F8
:1016000008F074FF0646002800F0908004210C309A
:101610002DF035FFBDF800300380BDF80230438067
:101620002246314642F2240008F0BCFF044600285E
:101630007FF468AF95F8D8305C0610D501AA002178
:1016400042F22A0008F0AEFF044600287FF45AAFA9
:101650000198C3685B7885F8203120F003F80821F1
:1016600042F2010008F042FF044600285ED0082143
:101670000C302DF004FF95F8D81011F0400F024601
:1016800040F2022308BF032388074CBF43F02C001D
:1016900043F00C0095F8D9308F0648BF40F0400069
:1016A00013F0090F95F8A23018BF40F4006003F062
:1016B0000603CE0748BF40F01000062B08BF40F4D9
:1016C000C070002129F0A3FF2146002242F2010050
:1016D00008F068FF044600287FF414AF95F87C30CA
:1016E000B5F80411980624D4C9B901AA41F205003D
:1016F00008F058FF044600287FF404AFB5F8043121
:10170000019C4BB9E368B3F80120A5F804219A883D
:101710003E4811462FF0A8F820461FF0A3FF0821ED
:1017200040F6014008F0E2FE044638B96FF0680464
:10173000E8E60029F3D16FF00404E3E608210C3059
:101740002DF09DFE95F8D830D907024653BF4FF0D3
:1017500000512BA1D1E900012D4829F058FF214665
:10176000002240F6014008F01DFF044600287FF4E7
:10177000C9AE014601AA4FF6014008F013FF044626
:1017800020BB01981FF06EFF214601AA4FF60240D0
:1017900008F008FF0446C8B90198C368B3F80130DF
:1017A000A5F8C1301FF05EFF95F8C1305B070DD57D
:1017B00001AA21464FF6034008F0F4FE30B9019823
:1017C000C3685B7885F8C0301FF04CFF2AF027FB18
:1017D000044600287FF496AE0BF0B2FB04460028C6
:1017E0007FF490AEEB79002B3FF48CAE08210948D2
:1017F00029F073FE09F072FA84E600BFAFF30080AF
:10180000908800020080002018010020480100207C
:1018100010880002140100202DE9F843D0E90C35AE
:10182000D0F82C805C193034A0450F46164619D8E4
:101830001D4DA3FB05011AA3D3E90023FFF760FCAC
:101840000346A4EB0800A0FB050123F07F4414A38A
:10185000D3E90023FFF754FC20F07F403C60306068
:10186000BDE8F883DFF840900DA3D3E90023A8FB7F
:101870000901FFF745FC044605F1300008A3D3E950
:101880000023A0FB0901FFF73BFC24F07F4420F07C
:101890007F403C603060BDE8F88300BFAFF300805C
:1018A0008D49FD1A0700000000CA9A3B00000000A5
:1018B0009FED0D7B124B134A1348144910B483ED6E
:1018C000007B9FED0B7B82ED007B9FED0B7B104B34
:1018D0004FF0FF34002281ED007B04601A605DF858
:1018E000044B12F0BDBB00BFFFFFFFFFFF1F000056
:1018F00000000000000000001F00000000000000C9
:10190000A801002058350020D05C0020A001002054
:10191000C85C002000000000002800F05F812DE975
:10192000F04FB54C94F86A2012F001058DB040F0EC
:10193000A78194F82500FF2300F0030084F82630E7
:101940001BF0B6FE94F86A00420727D494F82920C9
:1019500094F8353004EB820204EB8303D66AD3F8A3
:10196000388086B1A448314614F0FEFA33785B061D
:1019700005D506210FF0A2FA002800F083819E48C9
:10198000414614F0F1FA337813F00E0F40F0B780AF
:10199000236A93B10C200DB0BDE8F08F2A4604F104
:1019A0006B01C0F3C0001CF01FF8FF2884F826006C
:1019B000CCD028461BF0C2FEC8E711F07BFC814664
:1019C000002800F0718111F081FC8246002800F0AF
:1019D000688114F0F7FE0546002800F06781D0F812
:1019E00088004FF6FF732B8505F11C0B002800F0D3
:1019F0004F8105F1780105F17C020FF06BFAB5F823
:101A000076307E4A23F4EF6323F0070343F48873B0
:101A100043F00103A5F876301346D2F80120C5F84B
:101A20009B21C5F8A12113F8012B9B88A5F89F31B4
:101A3000A5F8A53195F89A3102F0010262F300038E
:101A400062F3410385F89A3195F8393003F03F038A
:101A500063F07F0385F8393095F88E3023F0070363
:101A600085F88E3095F83C3023F00703002785F881
:101A70003C304FF4C023C5F888312846C5E91277B9
:101A8000C5F88870A5F88C706F86C5F82E7085F83B
:101A90003B702F65A5F88E71A5F8847117F060FC76
:101AA00085F85071C5F8549115F04AF995F89431BC
:101AB00060F3020385F8943115F048F995F89431F4
:101AC00060F3C50385F8943195F8803167F34103DD
:101AD00085F880310121284615F098FD05F1D400E4
:101AE00017F0C6F9C4E9189AC4F820B0C5E905771B
:101AF0002F70ED611DF0AAF8002840F0C58094F821
:101B000024300121C3F342030DF12B008DF82B305B
:101B10000FF07EFB0246002862D098F80110304694
:101B200013F0E4FF31233649A360364BB4F86870F4
:101B3000A0FB01010025C01841F107012CA3D3E946
:101B40000023C4E9055525706560E560FFF7D8FA04
:101B5000206110F091FE00F109083FB9357805F0D9
:101B60000F05A5F10105B5FA85F56D0994F8240076
:101B7000236965F3000010F0010584F824004BD0C0
:101B8000214A0992002010600225204A204F049328
:101B90000BAE019305920321CDE902000694434662
:101BA0000090089607972A460B9510F003FD3146E2
:101BB00011F046FCA0B9174905914AF2D8330093B9
:101BC000CDE90300CDE90100079708960694434646
:101BD000012203210B9510F0B9FC43E013F0D2BEB3
:101BE000236A002B3FF4D6AE13F08AFED2E600BF84
:101BF0008D49FD1A07000000885D0020D44C0300C9
:101C000000CA9A3B8C49FD1A7C5D0020695B01008B
:101C1000092A01007D5601002B4A2C48049303F247
:101C200047130694029591211360A7FB000301FB63
:101C30000731274B0793274B05934FF6FF73099204
:101C4000022703930BAE1EA3D3E900230B9708963C
:101C5000FFF756FA4346CDE900503A46284603219D
:101C600010F0A8FC314611F0EBFB0028B8D194F835
:101C70006A3043F0010384F86A3014F097FB60B1D6
:101C8000002088E6122086E613F03AFE032082E662
:101C900005F18000C5F88800ABE601201BF0EAFCE6
:101CA000EEE7484611F00CFB072074E6504611F0B1
:101CB00013FB484611F004FBF6E700BFAFF30080CA
:101CC0008D49FD1A070000007C5D0020002AE78492
:101CD000092A0100695B010070B590F824308AB0D0
:101CE000C3F342030D46044601210DF123001646BD
:101CF0008DF823300FF08CFA71780246284613F0E5
:101D0000F5FE1F491F4AA0FB0131981841F1070158
:101D100019A3D3E90023FFF7F3F923699842054695
:101D200021D21B1A00220192174A0293174BA21AC2
:101D3000A3FB02320221920900230A4409AE099151
:101D400013490591CDE903330321D2B206960093DE
:101D5000184610F08FFC314611F072FB38B925613E
:101D600000200AB070BDFBD9C21A0023DBE70C20AB
:101D70000AB070BDAFF300808D49FD1A0700000066
:101D800000CA9A3B8C49FD1A885D002089888888A2
:101D9000092A01000000000038B5194C9DF810E038
:101DA00094F848C01CF0010523D163F3420C4001B4
:101DB00094F83230A1874FEACE0E0EF0180E00F0E4
:101DC000200040EA0E0023F0380303430D4884F856
:101DD00032309121A2FB000384F848C001FB02319C
:101DE00005A3D3E90023FFF78BF9C4E910002846C7
:101DF00038BD0C25284638BD8D49FD1A0700000066
:101E000060350020002AE78410B504469DF80800DC
:101E100022844FEA411CC000A17D00F018000CF0A4
:101E2000200C4CEA000C0C4821F038014CEA010C63
:101E3000A3FB0002912184F816C001FB032104A337
:101E4000D3E90023FFF75CF9606210BDAFF30080B7
:101E50008D49FD1A07000000002AE78400000000F9
:101E60002DE9F047044600F1350190F8480094F858
:101E700032305B4DDFF88081C0F3400060F38613A1
:101E80008CB084F8323010F04BFD94F83220A38FE0
:101E90005448E46102F07902002784F8322091214D
:101EA000A3FB0002C4E90577277001FB03214AA3C5
:101EB000D3E90023FFF724F9651B626C4A4B676086
:101EC000AD08A3FB053502F10903984298BF3A46D5
:101ED000C5F3470522644FF031028CBF1946014615
:101EE000A26005EB4502E760216148F82210064632
:101EF00010F0C2FC236A00F109074FEA450A002BE3
:101F00004AD00DF12C09AA4408EB8A030993CDF8B5
:101F100020900694A38F33484FF00008A3FB0002E3
:101F2000CDF80C80912101FB0321236904932F4BF1
:101F300007932F4B05934FF0020A27A3D3E9002301
:101F4000CDF82CA0FFF7DCF8104619464FF47A7252
:101F50000023FFF7D5F80435EDB2CDE90160032188
:101F60003B462A46CDF80080404610F023FB494608
:101F700011F066FA60B994F8483043F0010384F830
:101F8000483013F0C7FF08B300200CB0BDE8F0875D
:101F90000C200CB0BDE8F0870DF12C09CDE90A3317
:101FA00021694B460AAA032001F096F90028AAD11C
:101FB0000B99104808A3D3E90023A1FB0001FFF708
:101FC0009FF80A9B20F07F471F449CE750461BF078
:101FD00051FBD9E7AFF300808D49FD1A07000000DF
:101FE00060350020002AE784BD86F21A092A010024
:101FF0009D61010000CA9A3B185E002000000000AD
:102000002DE9F04F05468BB08B46012002219A4600
:1020100014461FF0BFF800220221814601200EF075
:10202000A9FF3B494FF4D47228460EF033FF461DFA
:10203000F6B2384B009532460121002010F032FBF9
:1020400010F0FD0F0CD0344A3449354840F62F03C8
:1020500027F075FA404080F311884FF0030002DF4B
:10206000304BA4FB0348204627A3D3E90023414675
:10207000FFF746F82C4B20F07F47A7FB03310722E0
:10208000E01A02FB071168EB01014FF47A7200239A
:10209000FFF736F8CDE90170CDF800B00895069548
:1020A000296995F9394021480491214931EA2401EF
:1020B00028BF014605911F4C07944FF6FE7103910E
:1020C000534632460121002010F040FA10F0FD0F77
:1020D0000CD0114A1149124840F6440327F02FFA58
:1020E000404080F311884FF0030002DFB9F1000F88
:1020F00002D10BB0BDE8F08F0122022110460BB0D7
:10210000BDE8F04F0EF036BF8D49FD1A0700000004
:10211000B03500206D670100B83503007C36030040
:102120005430030000CA9A3B8D49FD1AE5C70100EF
:102130008DC90100156701002DE9F043C469228DA6
:102140004FF6FF739A428DB000F088800546204616
:1021500017F0FEFB95F82830012B00F00F81022BC1
:1021600000F00281002B00F0E18094F85071002F04
:1021700040F0FD80E68DB4F83080002E71D1AA8C3D
:1021800008F101060023CDE90A33B6B2002A70D067
:1021900094F93930002BC0F248810023A4F88A3129
:1021A00095F82630D90740F1EF800023A4F88E314E
:1021B0000DF127023146204617F00EF9743000F079
:1021C0004681B4F888312BB1B34240F20D819B1B9C
:1021D000A4F88831B4F884312BB1B34240F2FB80CB
:1021E0009B1BA4F88431258E17B9A84500F0EA801E
:1021F0000135ADB294F8D13013F001065AD1DDE9C2
:102200000A130A46002B40F0ED80002900F0DC8024
:102210001E461846228DE4690694CDE9035705321F
:10222000A74D0290CDE90016D2B2012100200595FC
:1022300010F020FA10F0FD0F10D011F02BF98442AD
:102240000CD0A04AA049A14840F2155327F077F9D5
:10225000404080F311884FF0030002DF0DB0BDE86D
:10226000F083AA8C46440023CDE90A33B6B2002A93
:102270008ED195F82630DA0797D4B4F88A31002B3E
:1022800000F08280B34240F2FA809B1BA4F88A31AE
:10229000B4F88E31002B8BD09E4280F0DE809B1BE9
:1022A0009BB20022062BA4F88E31228600F2AC806D
:1022B00001277DE794F939206FF30003002A84F8A1
:1022C000D13077DB94F87600C0F3C00100F007004E
:1022D0001CF022FBB4F86E20B4F86C30134403F207
:1022E000D51303447A4A7B480721E3FB00211046BB
:1022F00071A3D3E90023FEF703FFDDE90A1320F001
:102300007F4220692261904235BF161A801A002050
:1023100000260A46002B7FF47DAF56EA010C7FF4BD
:1023200079AF002850D019461E4673E794F88E30D6
:1023300003F01803182B7FF418AFA18DB4F8862191
:102340008B1D9A42C4BF931F5B1AB4F88211CCBF95
:102350009BB21346994200F08C80A4F88231A4F815
:102360008431A4F8882100E73D2784F8507139466C
:1023700020460DB0BDE8F04314F006BE0023A4F8DB
:102380008831A4F88431F0E6B4F88E31002B83D183
:10239000628DB4F88C3140F2E24101FB02F242F26C
:1023A000107101FB0323013BB3FBF2F39BB2A4F8D2
:1023B0008E316FE794F87700012100F007001CF0E0
:1023C000ADFA87E73D4615E7002D4BD000261146B4
:1023D000304633461EE70023A4F88431204617F028
:1023E0009BF800E7304615E710F0BCFF01460028D7
:1023F0003BD00023A4F88831238DC3801B230371B5
:10240000006810F079FFE5E694F939309342BFF6A1
:10241000CFAEB8F1000F7FF44BAFD4F878315A0843
:10242000DB0743D4C4F87821C2E628460AAA0BA9E0
:1024300004F1D409FFF7F0F9484616F05BFD18B334
:10244000484616F057FD18B300232386A5E69DF8ED
:102450002710204614F098FD00E70821204614F0CC
:1024600093FDFBE6002FB1D1F8E60123A4F88831F3
:10247000B0E6B4F8881100297FF477AE6FE73E210B
:10248000204614F081FDE9E6FF2014F035FDD7E782
:102490000246D4E91E010EF035FD0028D4D194F88F
:1024A0003C30580744BFA38D238676E642F00042B5
:1024B000C4F87821FCE600BF8D49FD1A0700000032
:1024C000D5660100B8350300C83603005430030058
:1024D0008C49FD1A00CA9A3B2DE9F04F87B0CDE92F
:1024E0000432BDF8442003780292BDF84820BDF8BC
:1024F0004080BDF84C50468EB0F82E90B0F814B124
:10250000019104460392002B00F0CB80013EB6B24D
:10251000A368D4F80C71721B92B2002B009209DAF6
:10252000E168626823F0004391422CBF7F18BF1816
:10253000A360FF1A009A638D13FB02F39BB2B3FBF7
:10254000F8F218FB02F080B283421FFA82FA80F0A0
:102550009780C01A40F2E2425D4902FB00F0A0FB06
:10256000010159A3D3E90023FEF7CAFD20F07F4003
:102570000744D94494F839304D44AD1B554440F2DA
:10258000E246DB09E58506FB08F500F08E80226C4B
:102590000099A36CDFF838B102FB1133A3641CF07F
:1025A000A7FB814694F87401C0F342001CF0A2FB23
:1025B000059B814406FB03F305FB09F9236509F537
:1025C0007429444B09F23F29A3FB09394FEA994387
:1025D00003FB0AF02364A5EB0309A36C6A08034418
:1025E000963A934228BF1346C4E911230023C4F846
:1025F0007C31A0FB0B0134A3D3E90023FEF780FD5F
:10260000049B3F1A3448A0FB0330800A06FB00F00D
:102610002DA3D3E90023A0FB0B01FEF771FD20F0F1
:102620007F46029BA385039BA4F88C312946204654
:10263000A4F82A8016F00CFF284BA18D2B44881D8E
:10264000B3FBF5F39AB29042A4F8862102D2521A53
:10265000063A92B2019BA4F8822113B10023A4F898
:102660008E313B464A4631462046FFF7C9FC94F876
:10267000803143F0010384F8803107B0BDE8F08F6A
:1026800008FB1231124840F2E24389B203FB01F128
:10269000A1FB00010CA3D3E90023FEF731FD3F1A93
:1026A00067E74E445E44B6B232E7049B0848A3FB9A
:1026B000000105A3D3E90023FEF722FD20F07F46A9
:1026C000A9460136ADE700BF8D49FD1A070000009D
:1026D00000CA9A3B83DE1B435917B7D17FC3C90198
:1026E0002DE9F04F04460B68077F1668D3F800A069
:1026F000638CD0F81E0095B015464A7CADF84C307E
:10270000FF2AC7F3801389460D9212908DF83F304F
:1027100072D198461A4612AB93E803000DF1400BB4
:102720001090ADF84410F8090AF1710127680A9178
:102730005B460C900B9714F00FFB0A99002843D1CD
:1027400096F89A310C9A0A9068F3410362F30003F9
:1027500086F89A311098BBF80430C6F8A101A6F8A3
:10276000A531DAF87130C6F89B318B88A6F89F3115
:10277000E38D94F83010A9722B81D4F82A306B6065
:10278000D4F83A30AB6105F1180094F83E3003718B
:1027900005210EF03DFD6B7F00F03F0060F3050367
:1027A0006B7794F83F30C3F30401A977A18EE981D8
:1027B000012803F01F0389B206D91B3303F01F035E
:1027C0000B2B01D80A9A59BB0022CAF8142095F89D
:1027D00020300B9862F3000385F82030E56801266D
:1027E0002146267110F07EFD28682E71294610F0D2
:1027F00083FD15B0BDE8F08F0DF1400B10460DF1D3
:102800003F015A461AF0ACFC9DF83F80277F08F143
:1028100002085FFA88F88DF83F8008F0010282E72D
:10282000D9F800305A60E38E2B82EB8940F2E248FF
:1028300008FB03F71146638E0A93304616F01CFE20
:1028400094F83F3096F874215B0963F3430286F8ED
:1028500074211CF04DFA0C9096F87401C0F34200FC
:102860001CF048FA0C9B184407FB00F0BA4B00F52B
:10287000742000F23F20A3FB00307B08800C963BC5
:102880006862AB6294F8313008FB03F3AB63238FCB
:10289000A6F88C313946304616F0DAFDAF4BB04A17
:1028A000C6F890213B44B3FBF7F39AB2A6F8862111
:1028B000298A881D824204DDC1F57F41FA310A442C
:1028C00092B2A6F882216B68C6F87831234613F8D5
:1028D0001C2FC2F34018DA0700F104814FF4807313
:1028E000A3839AF826001BF095F904F12B03002826
:1028F00000F0EE80626AC4F82B20228D9A800D9B36
:10290000FF2B00F0E980BDF84C301298A4F8293074
:10291000C4F82500BBF80430A4F8233010989DF8C3
:102920003F30C4F81F00A377EB8963862B8AA38608
:10293000B6F88C31E38696F87431C3F3420384F819
:102940003830304613F04AFFA881E08021460B98CA
:10295000D9F8044010F0C6FCAB89E3801C23D4F8FE
:1029600000B02371B8F1000F40F0D18084F81C80D2
:102970002146584610F0C0FC95F85B00B5F8508031
:10298000B5F85240012100F007001BF0C7FF444496
:1029900004F2D514DFF8D48104448346714807213A
:1029A000E4FB080131230024B360746068A3D3E919
:1029B0000023F460FEF7A4FB20F07F4030616D6AD5
:1029C0000A9A7D1BD9F80C7040F2E24303FB0277B0
:1029D0000221224601200EF0CDFA504613F080FA73
:1029E00007F2B2470246A7EB0B07A7FB0801174601
:1029F00057A3D3E90023FEF783FBCDF804A0D9F851
:102A000008305949009120F07F48BA1C3A3BD2B2B5
:102A10002046434401210FF087FE012800F0828008
:102A20009AF82430DB076AD4304613F0D7FE4F4BB8
:102A3000A5FB035A044646A3D3E900232846514682
:102A4000FEF75EFBD9F80830494A0792A3F13A092C
:102A5000484B069620F07F47A7FB0331E81A464B08
:102A6000059340F2D113089333694FF0000BCDE981
:102A700003B34FF0070303FB07116AEB01014FF4A7
:102A80007A720023FEF73CFB0534E4B2CDE9017015
:102A9000CDF800804B462246012158460FF056FDE6
:102AA00010F0FD0F0CD0354A354936484FF4E97324
:102AB00026F045FD404080F311884FF0030002DF0F
:102AC0000122022110460EF055FA15B0BDE8F08F34
:102AD000C4F82B00988012E70022C4F82520A4F83F
:102AE000292017E7254A28492648F82326F027FDFC
:102AF000404080F311884FF0030002DFEEE6002330
:102B000001220093184611460FF0CCFD8CE76B7F35
:102B100043F040036B77281D1AF01AF94FF00108B3
:102B2000E88323E710F0B6FC82453FF479AF134AFF
:102B30001649144840F2792326F001FD404080F305
:102B400011884FF0030002DF6AE700BFAFF3008097
:102B50008D49FD1A0700000083DE1B437FC3C901B6
:102B6000404B4C008C49FD1AA9C7010000CA9A3B92
:102B700079C701008D49FD1AE5C70100683B0300D4
:102B80007C3603005430030018330300C43B0300B9
:102B90002DE9F04F8DB01F46BDF860300793CDE9A9
:102BA0000501BDF868309DF85C90BDF864B00493F1
:102BB0000020164613F008FC002800F0658109F09B
:102BC0000108044640460FF09BFE0390B8F1000F49
:102BD0006DD1169B03993A46404614F0BDF8002883
:102BE00040F06381236A04F11C020892002B65D037
:102BF000D4F820A0DAF8005007F0010B9AF85A0038
:102C0000C0F3C00100F007001BF086FEBAF85210B6
:102C1000BAF8502000F2D5130A441344CC48CD4AE8
:102C20000721E3FB00211046C7A3D3E90023FEF7E9
:102C300067FA20F07F40286130461AF05BFD94F877
:102C400033306FF3410384F83330FF2384F834309A
:102C5000002E00F01D81A9F10203012B40F2298111
:102C600094F84810089869F3420184F8481094F8E1
:102C700033106BF30001DDE9052384F83310169956
:102C800009686162169989882185049921860096D0
:102C90000021FFF7B9F860641BF0D8FF002840F06E
:102CA00013812046FFF7DCF80DB0BDE8F08F062158
:102CB0000EF004F900288CD11220F5E710F0FAFA92
:102CC0000990002800F0738113F07CFD0546002870
:102CD00000F06A8120300EF0AFFA05F11C0A0028DE
:102CE00040F01D81032105F124001BF0C9FC079B66
:102CF000D5F888006B854FF6FF73A5F82CB02B85AF
:102D0000002800F0198105F17C0205F178010EF030
:102D1000E1F8B5F8763023F4EF6323F0070343F4CA
:102D2000887343F00103A5F8763095F88E304FF0A4
:102D3000000B23F0070385F88E300121C5F888B019
:102D4000A5F88CB0284614F061FCC5F82EB0A5F8A3
:102D500032B005F1340019F0A5FF95F8393060F371
:102D60000503012185F839300DF12F001BF088FC97
:102D7000049B9DF82F20A5F88C31774B85F83BB04C
:102D8000A3FB0213DB0803EB4303A2EB830295F8DA
:102D90003930A98DA5F88EB103F03F0385F839309D
:102DA00095F83C30A5F884B1053223F0030385F88B
:102DB0003A20079A85F83C3040F2E24B674B0BFB18
:102DC00002FB4FF4C0225B44C5F88821881DB3FB89
:102DD000FBF39AB28242A5F8862102DD063A521A26
:102DE00092B2A5F88221284616F0BAFA594628462A
:102DF00016F02EFB099BC5F85431002385F850319D
:102E000013F09EFF95F8942160F3020285F8942157
:102E100013F09CFF95F8942160F3C50285F8942186
:102E200095F88021002363F3410285F8802105F1A4
:102E3000D40016F01DF895F89A21169907F0010BA9
:102E40006BF3410285F89A213122AA600023169A79
:102E50006B60EB601268C5F8A12195F89A2189880A
:102E6000A5F8A51169F30002039985F89A210A686B
:102E7000C5F89B218A88A5F89F21C4F820A0C5E940
:102E800005332B70ED61B9E60C200DB0BDE8F08F75
:102E90001BF070F800283FF4DEAE16993846324633
:102EA0001AF0A2FD84F83400D5E60B200DB0BDE881
:102EB000F08F00201AF042FC94F8333043F0020304
:102EC000C14684F83330CBE6256AEB6E63B1244A01
:102ED0002449254840F21D4326F031FB404080F351
:102EE00011884FF0030002DF05F1600105F15C007D
:102EF0000DF0F4FF064600283AD02F68EE66D7F8AA
:102F00005451002D42D0284610F0DAF9384613F01B
:102F10005FFC0023032023620DB0BDE8F08F104A50
:102F200012491148C12326F00AFB404080F3118862
:102F30004FF0030002DFD5E605F18000C5F88800F8
:102F4000E1E600BFAFF300808D49FD1A07000000E5
:102F500000CA9A3B8C49FD1AABAAAAAA7FC3C90131
:102F6000F43B0300AC34030054300300B0300300E2
:102F7000104A1149114840F21F4326F0E0FA404040
:102F800080F311884FF0030002DFB6E7094A0A49CF
:102F90000A4840F2264326F0D2FA404080F31188D6
:102FA0004FF0030002DFAEE7099810F089F907201F
:102FB0007AE600BFF43B03000836030054300300F8
:102FC0002DE9F04F04468DB090F81C80238D406AA7
:102FD000ADF82C30E307C8F3C0170E461546C8F30A
:102FE00040180A9000F10D810023A383B37C707C0C
:102FF00013F001031CBFD4F81E30C4F82B3004F1C9
:103000002B0214BF638CC4F82B30FF28938004F18B
:10301000250904F11F0240F0E5800023BDF82C10C3
:103020000A98C4F82530A9F80430A777C4F81F001F
:1030300091803368D3F80090EB8963862B8AA3864E
:10304000B9F83030E3861BF051FE84F838002F6861
:10305000384613F0C3FB0021A881E080384616F003
:103060000BFAD6F804A02068214610F03BF9AB8992
:10307000AAF806301C23DAF800408AF80430B8F1C8
:10308000000F40F0CC808AF81C805146204610F09A
:1030900033F9BB687A6895F85A00B5F80E80F56880
:1030A000674C934238BF1346C0F3C00103F1090ACD
:1030B00000F0070040F2E24303FB08F81BF02CFC91
:1030C000002202212D1A01200DF054FF484613F072
:1030D00051F9A5FB044558A3D3E9002383462946AB
:1030E0002046FEF70DF8CDF80490B36855490091DD
:1030F00020F07F490BF10402A3EB0A03D2B24B4448
:10310000012100200FF010FB10F0FD0F0CD04E4AF3
:103110004E494F4840F23D3326F011FA404080F3CB
:1031200011884FF0030002DF4FF0000B5B460322D3
:103130000121CDF800B058460FF0B4FA384613F02C
:103140004DFBB36806463E48A3EB0A0AA8FB000104
:1031500039A3D3E90023FDF7D3FF19463D4B08936C
:103160003D4B069340F26D33079709933B698046C8
:10317000CDE904B3104600234FF47A72FDF7C0FF87
:10318000364B0722A9FB0331CDE9028002FB09116E
:10319000E01A65EB01014FF47A720023FDF7B0FFEE
:1031A0000536F6B2CDE90090534632460121584625
:1031B0000FF0E8F910F0FD0F0CD0234A2349244802
:1031C00040F26E3326F0BBF9404080F311884FF097
:1031D000030002DF0122022110460DB0BDE8F04FCE
:1031E0000DF0C8BE04F11E0119F0BAFFA37FBDF8AF
:1031F0002C200A98C4F825000233A377A9F80420EC
:1032000017E7114A1649124840F2BD2326F097F9F4
:10321000404080F311884FF0030002DFE4E66B7F4B
:1032200043F040036B77281D19F092FD4FF0010821
:10323000E88328E7AFF300808D49FD1A07000000FE
:1032400000CA9A3B59C90100F43B03007C360300D5
:10325000543003005DC901008DC901008D49FD1A7C
:1032600018330300000000000538C3B2052B0CD84A
:1032700070B580B20D4613F0B9FA044618B190F952
:103280003930002B03DA002070BD0020704790F821
:1032900076000F4EC0F3C00100F007001BF03CFBAE
:1032A0000C4A00F2B5500721E0FB0621104606A3A8
:1032B000D3E90023FDF724FF20F07F40286020465B
:1032C00070BD00BFAFF300808D49FD1A07000000FC
:1032D00000CA9A3B8C49FD1A2DE9F04F93B0FF24A8
:1032E0000B930B1D0A930023CDE90E3305461646BA
:1032F0008DF837409B464FF0040A1F469946984682
:1033000010AB0693564B0593564B03930FAB0193AB
:103310000EAB0020009302231093049002903346DA
:103320000DF1370229460FF043FA022815D0109B01
:10333000CBB9FF2C26D03368BB4223D0BAF1000FA3
:1033400040D00AF1FF3AFF245FFA8AFA8DF837403D
:10335000D6E7294600200FF077FA109B022BF8D011
:10336000109B002BE5D0404A404941484FF4F77389
:1033700026F0E5F8404080F311884FF0030002DFAB
:10338000FF2CD8D19DF83700FF2829D011A9FFF7CD
:103390006BFF0028B4D0FF2C0E9F119B0AD0414632
:1033A000384609930FF06AFA0A9B03EB0902904230
:1033B000099B17D8B8469DF837403768DDF83CB010
:1033C00099469DE72B49284A29484FF4FB7326F07C
:1033D000B6F8404080F311884FF0030002DFB0E7F9
:1033E000FF2C34D024480721A9FB000301FB09313D
:1033F00019A3D3E90023FDF783FE044600B140344E
:103400001E4AABF57423A3F51073934216D81A48DD
:103410000721A8FB000301FB08310FA3D3E9002318
:10342000FDF76EFE164BA3FB0B2304EB93440B9BA3
:10343000044400201C6013B0BDE8F08F0BF1E87B62
:103440000BF5D43B08F1FF380BF5A57BDFE76FF0F8
:10345000090013B0BDE8F08F00CA9A3B00000000DD
:1034600069CC01006DCC0100403C0300843C0300AA
:10347000543003008C3C03008D49FD1ABFBDF07F22
:1034800083DE1B43000000002DE9F043C668476857
:1034900073683D491A68D0F80090A7F57423A3F526
:1034A00010738B4283B0804607D907F1E87707F5A0
:1034B000D43709F1FF3907F5A57773681169DD89FC
:1034C000CDF8049006F1100301AA0220FFF704FFD3
:1034D00000284ED10199A1EB09031B0237D40846FD
:1034E00049460FF0CBF9034628480721A3FB000209
:1034F00001FB032122A3D3E90023FDF701FE346978
:103500000444002C346109DB40F2E24305FB03F381
:10351000A3422FD2E41AA342FCD33461D8F800307E
:103520001A48A3EB0903A3FB0002072101FB0321B7
:1035300013A3D3E90023FDF7E3FD154BA3FB0737E6
:10354000A0EB97402044306103B0BDE8F0834846CB
:103550000FF094F903460D480721A3FB000201FB7D
:10356000032107A3D3E90023FDF7CAFD3469241A18
:10357000C7E73469002CD1D103B0BDE8F08300BFA8
:1035800000CA9A3B00000000BFBDF07F8D49FD1AC4
:1035900083DE1B430000000010B5334C3349002389
:1035A00004F1FF3C14F83320072A02EB820E05D801
:1035B00011F83E206FF3451201F83E201CF833202D
:1035C0006FF300020CF833200133082BEAD1284AAC
:1035D000284C002313700A7863F300020A7091F8F4
:1035E000282063F3000281F8282091F8502063F32B
:1035F000000281F8502091F8782063F3000281F8EE
:10360000782091F8A02063F3000281F8A02091F8BF
:10361000C82063F3000281F8C82091F8F02063F31A
:10362000000281F8F02091F8182163F3000281F87C
:103630001821114A9FED0A7B1370104B83ED007B1C
:103640000F4B236028B1BDE810400E490E482DF005
:10365000D2B9BDE810400C482DF0DBB9AFF30080C3
:10366000FFFFFFFFFFFFFFFF596B0020186A0020DC
:103670009B7F0020286900209A7F0020D03F0020F7
:10368000A0BB0D0029D90100A03F002000000000D0
:103690002DE9F04F8FB00DF137010446DFF8E0A0BF
:1036A000DFF8E0800DF136000FF0A4FE9DF8363013
:1036B0009DF837B00B930FF0DFF8DAF80060A6FB47
:1036C000085629A3D3E9002300278146314628461E
:1036D000FDF716FDCDE90777069420F07F44DAF870
:1036E0000400234B0593A0FB08011FA3D3E900238B
:1036F000FDF706FD1F4B20F07F40A4FB033107229E
:1037000002FB0411CDE90370E81A66EB01014FF4E6
:103710007A720023FDF7F4FC0097CDE901404B4697
:103720000B985A4603210EF011FF10F0FD0404D04F
:103730006FF08B000FB0BDE8F08F0F480F4A0023E9
:1037400023F04CFA20B9DAF80C000FB0BDE8F08F86
:103750009DF837209DF836000094234603210EF093
:10376000A1FF6FF07300E5E78D49FD1A0700000027
:1037700079E001008D49FD1ACC6B0020447B0B00E1
:10378000E46B002000CA9A3B38B50F4D04460FF099
:1037900073F8A9680FF072F8696803460B48B3FB29
:1037A000F4F4A1FB00011C4405A3D3E90023FDF7B9
:1037B000A7FC20F07F40844294BF0020012038BD48
:1037C0008D49FD1A07000000E46B002000CA9A3BF7
:1037D000F0B5C468636883B00546002B63D11DF063
:1037E0001FF808201DF042F8002108461DF030F8AF
:1037F0000022252108201DF06FF8454B019301A8F8
:103800001DF052F8434940F25B601DF0FDF8237A49
:10381000C3F3420262F30613204623721BF088FCB6
:103820001AF0A8FB58BB637A9B071FD127682E6844
:1038300038461BF00FF806446A6806F109010120BA
:103840001DF03CFA1DF028FB204612F055FB811CB0
:103850003246C9B238461BF00BF8054670BB20460D
:103860001AF092FF88B9002003B0F0BD012019F0D2
:10387000F5FE4178821C00781DF0C0F9D6E7607A29
:1038800010F0030018BF0120F1E7234A2349244820
:1038900040F22C4325F053FE404080F311884FF056
:1038A000030002DFDFE793F820309A0797D01D4826
:1038B00021461CF073FF1DF061F8D4E7164A1A493F
:1038C000174840F2144325F03AFE184B0721A5FB98
:1038D000030301FB05310CA3D3E90023FDF710FC22
:1038E00013490246134825F02AFE404080F3118810
:1038F0004FF0030002DF104821461CF04FFF1DF07F
:103900003DF86FF08B00AFE700CA9A3B0000000063
:10391000D6BE898E5555550038400300C03103008E
:1039200054300300F9E90100D43003008D49FD1A39
:10393000E8400300BC40030001ED0100000000006E
:103940002DE9F041C46894F91630002B8CB0C0F218
:10395000FF80636805460E46002B40F0EE80A37D95
:103960006FF30003A3751CF05BFF08201CF07EFFC3
:10397000002108461CF06CFF0022252108201CF0C5
:10398000ABFF01200FF038FE0746002800F0C7808B
:1039900007F11C001CF0CAFF874B0B930BA81CF00F
:1039A00083FF864940F25B601DF02EF8A07DC0F3D6
:1039B000410025301AF06EFF814821461CF0EEFED2
:1039C000A37D9B0603D46368002B00F0A58096209E
:1039D0001DF068F900231A46194618461DF07AF8BA
:1039E0001AF0C8FA002838D1A37D13F0180F59D166
:1039F000D4F800802F6840461AF02CFF07446A680C
:103A000007F1090100201DF059F91DF045FA1DF0DC
:103A1000D1F8204612F0BCFC011DC9B240463A461E
:103A20001AF026FF8046002840F0998016B9636A94
:103A3000002B4ED1636843B1624B0122022100206A
:103A40009D600DF0CDFA002835D120461AF09CFE7D
:103A5000D0B900200CB0BDE8F081A07DC0F3C0005B
:103A600019F0FCFD07460DF12B001AF0FBF87978F0
:103A70008046BA1C38781DF0C1F89DF82B00002252
:103A800041461DF0D9FAB3E74F4A5049504840F239
:103A90000B2325F054FD404080F311884FF00300C4
:103AA00002DFD6E7012019F0D9FD4178821C0078A9
:103AB0001DF0A4F89CE7444A4649454840F20623D5
:103AC00025F03DFD404080F311884FF0030002DFF8
:103AD000BBE7414A0792414A059240F2F312009334
:103AE0000892CDE90366CDE9016606943B4631466E
:103AF00003220EF02BFD10F0FD0F9BD0324A384907
:103B000033484FF4FA7325F01AFD404080F31188D2
:103B10004FF0030002DF8DE71DF03CF860E72A4A12
:103B200030492B484FF4C57325F009FD404080F320
:103B300011884FF0030002DF2AE7636893F8203012
:103B4000D90705D4636893F820309A077FF507AF4B
:103B5000254821461CF022FE1CF010FF79E71A4A86
:103B600022491B4840F2E51325F0E9FC204B0721D0
:103B7000A8FB030301FB08310DA3D3E90023FDF7E4
:103B8000BFFA1C4902461C4825F0D9FC404080F38E
:103B900011884FF0030002DF184821461CF0FEFD9B
:103BA0001CF0ECFE6FF08B0054E700BFAFF3008019
:103BB00000CA9A3B00000000D6BE898E55555500BC
:103BC000A13C0000F40C0020F4400300C0310300CD
:103BD00054300300C831030079F8010019F90100DD
:103BE000F833030084400300F9E90100D4300300F6
:103BF0008D49FD1A40410300BC40030055F7010008
:103C000038B504461BF056FDA37DA27DC3F34103E6
:103C1000013303F00303032B08BF002363F34202C5
:103C200014BF03F125002520A2751AF033FE636846
:103C30000BB123694BB90EF01FFEC11C00201DF013
:103C4000B1F8BDE838401DF027B91DF0D9F8054698
:103C50000EF012FEC11C00201DF0A4F81DF01CF98E
:103C60001DF0CEF829460EF009FE0B4A0346072147
:103C7000A0FB020201FB032105A3D3E90023FDF70A
:103C80003FFA23691B1A236138BD00BFAFF30080E0
:103C900000CA9A3B000000008D49FD1A0000000098
:103CA0002DE9F0478AB004461CF09AFEC0B250B924
:103CB0001AF048FEC44821461CF070FD0AB0BDE869
:103CC000F0471CF05BBE1CF0ABFE05461CF0CAFFC3
:103CD00007461CF0D1FF81461DF008FA06461DF08C
:103CE000E7F982461CF080FFEDB280461CF060FFD1
:103CF0001AF028FE002DDDD001200FF07DFC0546D6
:103D0000002800F04D8117F0FF07F6B240F0E38085
:103D1000002E40F0DA804FF0FF093A464B4631461C
:103D200020461BF0EDFE0028C4D02A7F61680023E6
:103D30008DF823305FFA88F702F00F03002900F0B6
:103D4000EC80616891F82010880700F1E680072B6D
:103D5000B0D0A17D090740F14381002B40F0C48021
:103D60006B7F063B1F2BA5D804200FF045FC0028D5
:103D7000A0D01DF099F8636A074643B9238C40F23E
:103D8000712202FB03F3B0FBF3F203FB120723687B
:103D90001A698E4B0721A2FB030301FB023188A3A2
:103DA000D3E90023FDF7ACF96FF44A7C00EB0C0378
:103DB000BB42FFF47FAF1CF0EDFE4846636819F08C
:103DC00037FFE37D9907804640F1E581002800F048
:103DD000E281824601271CF031FECDE9027A09AB6F
:103DE000049305F11E0301932B7FC3F38013014657
:103DF000074600930022012320461BF09BFE384615
:103E00001CF09AFD1CF0E2FD002840F0CA817048C9
:103E100021461CF0C3FC626892F8203043F0010395
:103E200082F82030A37D43F08003A3750FF006FCD9
:103E3000172202714FF6FF72C28095F81CC08246AD
:103E40003B46CCF3401C00F11C0207F1200E1D681C
:103E500058689968DF68D760103373451560506003
:103E6000916002F11002F2D11B6813609AF81C30C5
:103E7000CAF808406CF345138AF81C301CF0C0FFE8
:103E8000002ECAF81000099BCAF8143008BF4FF082
:103E9000FF098AF81990E37D13F0020303D0B8F10B
:103EA000000318BF01239AF81A2063F300028AF86E
:103EB0001A200FF0C3FBCAF80C00DAF800005146D4
:103EC0000AB0BDE8F0470FF0E7BB5FFA8AF019F0DF
:103ED0003DFF814621E7A07D5FFA89F1C0F3C00074
:103EE00019F0CAFE814618E7012B40F089806A7FED
:103EF0000C2A7FF4DFAE2A7FCDF80090194600230C
:103F00000193D20905F1240320461BF04DFD002842
:103F10007FF42AAF2B7F03F00F03002B70D16B7F50
:103F2000052B7FF6C7AE252B3FF6C4AEA27D02F06F
:103F30002102202A09D16268002A00F0C180052BE5
:103F40007FF6B8AE252B3FF6B5AE63682BB12B7F5D
:103F500003F00F03072B7FF4ADAE03209DF8238001
:103F60000FF04AFB054600283FF4A4AE0FF066FBB5
:103F70004FF6FF73EB8005232B71002F3CD17F2080
:103F8000AB7E2876002E08BF4FF0FF0968F341038F
:103F9000286885F81990AB7629460FF07DFB89E6F5
:103FA0000C4A0D490D4840F2C72325F0C8FA40409D
:103FB00080F311884FF0030002DFA4E6AFF3008026
:103FC00000CA9A3B000000006DF701008D49FD1A00
:103FD0005DF90100F4400300844003005430030005
:103FE000B9F1FF0F8DF82490C2F380184BD0227ED8
:103FF00091453FF4B2AE90E71CF0E6FDC0B2BFE7DA
:10400000062B8CD04521D94011F0010139D1012B6B
:1040100010D16B7F0C2B7FF44DAE2A7FCDF8009032
:104020000DF123030193D20905F1240320461BF06F
:10403000BBFC08BB2B7F03F00F03042B7FF43AAECD
:104040006B7F063B1F2B3FF635AEA37DDB077FF56D
:1040500031AE1CF0F3FC2B7F0278C3F38013B3EB7B
:10406000D21F7FF427AE0830062205F11E012DF085
:104070009CF900287FF41EAE6B7F002B7FF465AFA8
:1040800018E66B7F5BE705F11E0A09AA5146404618
:1040900019F012FF00283FF43DAFE37D03F0010368
:1040A00043457FF437AF5146062204F108002DF056
:1040B0007CF900287FF42EAF2B7F03F00F034CE632
:1040C000962007921CF0EEFD079A10461CF0BAFCF1
:1040D00003200FF091FA804600283FF4EBAD0FF07B
:1040E000ADFA4FF6FF73A8F80630052388F80430C0
:1040F000002F64D17F23002E88F8183014BF4B4660
:10410000FF2388F8193098F81A30D8F800006FF3B8
:10411000410388F81A3041460FF0BEFA1CF08EFCBD
:1041200006460322337862F3030333702B7F327821
:10413000C3F3801363F3C7120C23327048467370C5
:1041400019F076FDE27D92073DD500283BD031780D
:10415000324641F0400102F8021B0168C6F8021025
:1041600083889380D5F81E30B3606B8CB381304662
:104170001CF0E2FB1CF02AFC002835D11CF08CFE60
:10418000A37D204843F001032146A3750AB0BDE892
:10419000F0471CF003BBA77D04F1190AC7F3801791
:1041A00019E6194A19491A4840F2A44325F0C7F9FB
:1041B000404080F311884FF0030002DF27E61CF037
:1041C00003FDC3B297E7A37D3278C3F3801363F393
:1041D0008612334603F8022BD4F81920C6F80220C1
:1041E000B4F81D209A80BDE7074A084908484FF4F3
:1041F000A56325F0A4F9404080F311884FF0030037
:1042000002DFBBE781F70100F44003008C400300AC
:1042100054300300000000002DE9F041C468A28979
:104220004FF6FF739A4282B000F0C78005461BF03C
:1042300085FD2B89628AE08A1A4492B21044637F1A
:10424000A28280B2411CE1825E064FF000016182D1
:1042500004F1180100F18C8003F03F000B46A17FB0
:10426000009004F11F0018F02BFD0646D4E90B2343
:104270001344D4E90D0200210244E1626163A16AA2
:10428000A26394F872208B4228BF0B4612F00402FE
:10429000236377D01CF0C4FA08201CF0E7FA201D35
:1042A0001CF002FB2389A17A40F25B6043EA0141E2
:1042B0001CF0AAFB30461AF0EDFA214658481CF0D3
:1042C0006DFA96201CF0EEFC94F85A2094F85B00EE
:1042D000C2F3C003002102F0070200F007001CF047
:1042E000F9FB20461BF08CFD27682E6838461AF033
:1042F000B1FA06446A6806F1090100201CF0DEFCF0
:1043000080461CF09DFD00201CF0B4FD236B94F84A
:104310005B0003F13002A36B00F00700012103EB07
:1043200042051CF017FB4544054494F85B0000F07F
:104330000700022824D004280CBF4FF4BC732823A4
:1043400001211D441CF008FB28441CF06BFDA189D1
:1043500005313246C9B238461AF08AFA054698BB8A
:1043600020461AF011FAD0B9002002B0BDE8F08161
:104370000A4603F03F03E18B18F0EEFC064675E7B2
:104380001823DDE7D4E917010CF0BCFD002881D12A
:1043900094F8723043F0040384F872307AE7214ACB
:1043A0002149224840F2551325F0C9F8404080F3D6
:1043B00011884FF0030002DFD6E71D4821461CF0AC
:1043C000EDF91CF0DBFACFE7164A1A49174840F21C
:1043D0004B1325F0B4F8184B0721A5FB030301FB91
:1043E00005310DA3D3E90023FCF78AFE13490246E9
:1043F000134825F0A4F8404080F311884FF00300E3
:1044000002DF104821461CF0C9F91CF0B7FA6FF022
:104410008B00AAE7AFF3008000CA9A3B00000000BF
:1044200059000200C0410300C031030054300300B2
:10443000F9E90100D43003008D49FD1A144203004C
:10444000BC400300D5E90100F0B5C468A2894FF66D
:10445000FF739A4285B000F08B8005461BF06EFC1E
:104460002B89628AE08A1A4492B21044637FA28246
:1044700080B2411CE1825E064FF00001618204F1CE
:1044800018015FD403F03F000B46A17F009004F1B8
:104490001F0018F015FC0646204603A91BF07EFD00
:1044A000039B94F872101A7861F3C3021A70039A8E
:1044B00094F872301178C3F3400363F382011170F2
:1044C0001CF0AEF908201CF0D1F9201D1CF0ECF90D
:1044D0002389A17A40F25B6043EA01411CF094FA1F
:1044E00030461AF0D7F9039920461BF02BFD2146E0
:1044F00037481CF053F996201CF0D4FB94F85B006D
:1045000000F007001CF09EFA27682E6838461AF063
:10451000A1F906446A6806F1090101201CF0CEFBEE
:104520001CF0BAFCA18905313246C9B238461AF0EE
:104530009FF9054618BB20461AF026F950B900200D
:1045400005B0F0BD0A4603F03F03E18B18F004FC10
:104550000646A1E71F4A2049204840F2031324F0F1
:10456000EEFF404080F311884FF0030002DFE6E7E2
:104570001B4821461CF012F91CF000FADFE7154A2F
:1045800018491648F92324F0DAFF174B0721A5FB39
:10459000030301FB05310CA3D3E90023FCF7B0FDB5
:1045A00012490246124824F0CAFF404080F31188A5
:1045B0004FF0030002DF0F4821461CF0EFF81CF01B
:1045C000DDF96FF08B00BBE700CA9A3B00000000EA
:1045D0008DFE010020420300C0310300543003006F
:1045E000F9E90100D43003008D49FD1A704203003F
:1045F000BC400300D5E901002DE9F0472DED028B09
:104600009FED498B4A4E84B004464FF02003EFF3F0
:10461000118783F31288BFF36F8FD4F8C8508DB918
:10462000022104F1E0002CF02FF9002843D10023EF
:104630008DED008B029304F1D00239463D4822F003
:10464000ABFFE2E7D4F8CC202B68C4F8C830954221
:1046500008BFC4F8CC30D4F8E03043F00203C4F80B
:10466000E030EB6823F0040343F00103EB606B6878
:1046700087F31188BFF36F8F284698474FF02003C8
:10468000EFF3118983F31288BFF36F8FEB689907FB
:1046900023F0010219D4EA60D4F8E03023F00203D9
:1046A000C4F8E03089F31188BFF36F8FDB05ACD419
:1046B00022F052FEA9E704F1D80500220121284684
:1046C0002CF0E8FA0028F8D1B1E7306823F00303B2
:1046D000EB600028E0D00027D0F80080BA46002820
:1046E000DAD04268954201460BD1016897B97268E9
:1046F0003160824200D1716040F808AB22F048FA84
:104700003946B8F1000F0BD0D8F8002040460F46CC
:104710009046E4E739607268824208BF7760EBE751
:104720004246F3E7AFF30080FFFFFFFFFFFFFFFF0D
:104730000C7D00205A810020014822F02BBB00BFD5
:10474000B002002007B52CF0E2FA4FF47A72A0FB19
:10475000020302FB0131C00B074A40EA41401060EE
:1047600000234FF400420548CDE9002323F0F2F87E
:10477000002003B05DF804FB78430020E011002026
:10478000014B187800F048BA1A7E0020044B1A78C2
:10479000824202D01870FFF7F3BF0020704700BFBD
:1047A0001A7E002008B52CF0B2FA4FF47A72A0FB02
:1047B000020302FB0131C00B044A40EA4140106091
:1047C000BDE808400020FFF7E1BF00BF78430020AC
:1047D00008B52CF09CFA4FF47A72A0FB020302FB9E
:1047E0000131114AC30B126843EA41439B1A0F4A35
:1047F000934214DD02F06CF920B1BDE808400120BD
:10480000FFF7C4BF0220FFF7C1FF00F007F900283F
:1048100003DABDE8084000F03DB924F09DFE47F200
:1048200030529342E9DC08BD78430020009F240009
:10483000014B1878704700BF1A7E0020F8B5044677
:1048400010B900252846F8BD0378002BF9D00F4E8B
:104850000F4FBE420FD30D4EBE42F2D230682BF046
:1048600066FE30B1356821462868FCF7B3FD0028A4
:10487000E8D00436F0E730682BF059FE18B13568FF
:104880002B68A342DED00436E3E700BF2C680300A8
:104890005C68030030B5184C8DB00022002303A9DA
:1048A000204622F031F808B10DB030BDDDE9041525
:1048B000039800F05DF80028EFDBFF238DF8183037
:1048C000B5FA85F35B0907908DF820302CF01FFABC
:1048D0004FF47A72A0FB020302FB0131C00B40EAE5
:1048E0004140C90B8DE8030006ABCDE90A010FCBAF
:1048F00000F0ACF9D1E700BF181400201FB583F019
:104900000103CDE9011203930022002301A9044809
:1049100021F0A4FF034822F03DFA05B05DF804FB46
:10492000181400207C43002010B50446B8B10D488F
:104930000D492CF01CF8204625F00DF918B1012185
:10494000204625F0DBF8A36808491B6820469847F5
:10495000A3689B680BB120469847002010BD6FF0FC
:104960001500FBE77C43002095480000FD4800004F
:104970000A2303FB00111131212905D8044B53F8F8
:10498000210008B1013870476FF01500704700BF73
:104990000C1C0300F8B50F4D0F4E761B07460C4656
:1049A00005EBC105C6F3C706A64201DC00200CE0FA
:1049B0002A683B689A4209D13C716B6838461B688B
:1049C000984718B1431E012BF0D9F8BD01340835C2
:1049D000EAE700BF48510300905103000D4B0E4A17
:1049E000D21A70B4C2F3C7020024A24203DC6FF0F3
:1049F000150070BC70471E680568AE4206D15D6840
:104A00008D4203D1E1B270BCFFF7C4BF013408335B
:104A1000EBE700BF485103009051030037B501A8F0
:104A200021F0CCFC194D019C00232B601823584326
:104A300018380444019B9C4202D2002003B030BDD0
:104A400020462BF074FDF0B1204625F04DF8D0B98A
:104A5000204625F08AF8B0B9204625F072F80146C4
:104A600088B9204602F0E6FF20F0200378330AD010
:104A700010F1860F07D00028E0DB2B68044A42F8CB
:104A8000234001332B60183CD4E700BF8C43002047
:104A90008011002070B5084D084E2C68013C002C98
:104AA00002DA00232B6070BD56F82400012102F0C9
:104AB000C1FF013CF3E700BF8C43002080110020C0
:104AC00000B58BB0064B074A2821684623F01AF838
:104AD00005490122684603F01FFF0BB05DF804FB97
:104AE0009C460300A64603001B7E00202DE9F041F2
:104AF000466807693179F38804463068D0F810E0D9
:104B0000D0F80880DEF80050DA0754BF43F4B01341
:104B100083F4D0134FF0010C23F480120CFA01FC43
:104B2000DB074CBF45EA0C0525EA0C05CEF8005022
:104B3000D8F80030984760BB04F042F8164803F0FC
:104B40007BFF054610BB154915482BF054FF15484F
:104B500003F01CFF7B785BB901233B70002200232C
:104B60000F4822F07FF9A3681B680BB120469847D5
:104B7000318959B140F2E7304FF47A72002300EBEB
:104B8000C1300021FCF7BCFA22F068FC2846BDE8E1
:104B9000F0816FF00405F9E7D0020020C14A00005F
:104BA000A0160020B946030008B54FF4F012002308
:104BB000024822F08BF900EAE07008BDA016002040
:104BC000F7B50C461646114901AA1F4625F071F8A3
:104BD000B0B1019BA3B9012C15D10D4D2246294638
:104BE0003846B047002806DB2B780A486C7023B1A2
:104BF00023F027FB002003B0F0BD23F034FBF9E7DE
:104C00006FF00100F7E76FF01500F4E79C46030032
:104C10001B7E0020281803001FB50023CDE90233B6
:104C2000044B8DF80C0001A8019323F0F4FA05B0B1
:104C30005DF804FBAC1C03000268034B9A420CBFF6
:104C400008300020704700BFAC1C030084B030B5B2
:104C500089B00CAC84E80F00002301930CAD084B25
:104C600000930FCD02AC0FC495E8030084E8030065
:104C7000684623F0D0FA09B0BDE8304004B0704770
:104C8000B01C03000268034B9A420CBF083000209E
:104C9000704700BFB01C03001FB50023CDE90233ED
:104CA000044B8DF80C0001A8019323F0B4FA05B071
:104CB0005DF804FBBC1C030082B038B504A981E890
:104CC0000C000546114821F085FB0446A0B16B6835
:104CD000012B0CD0022B05D0A3B9BDE8384002B09F
:104CE00023F002BB23F007FB00282046F5DCBDE8DB
:104CF000384002B023F0F1BA6FF00400BDE838404C
:104D000002B070476FF08500F8E700BF9C460300D3
:104D100082B010B502A981E80C0004460B4821F0CE
:104D200059FB78B16368022B04D00020BDE8104025
:104D300002B0704723F0DFFA0028CCBF002001202A
:104D40006060F2E76FF00400F0E700BF9C460300EC
:104D5000014B1878704700BF1F7E00200D4A52F8A3
:104D60002030013342F820300B4A01231178834070
:104D70000B430A490978DBB2137023EA010308499F
:104D8000084A097850780B43181A537018BF01204D
:104D9000704700BF904300201F7E00201D7E002032
:104DA0001E7E00202511002010B5114A52F8203037
:104DB000002B19DD013B42F820300E4A2BB9137845
:104DC0000121814023EA010313700B480B4B047847
:104DD00010780B4A5978127820EA04001043587072
:104DE000401A18BF012010BD6FF01500FBE700BF8F
:104DF000904300201F7E00201D7E002025110020F2
:104E00001E7E0020044A012312788340D8B213404A
:104E10001B1A5842584170471F7E002010B5084B9E
:104E2000084A1870084B51781C78084B1B7823EA05
:104E3000040318435070401A18BF012010BD00BF72
:104E40001E7E0020251100201D7E00201F7E0020D8
:104E5000074B00221A70074B074A1978074B507806
:104E60001B7823EA0103181A537018BF01207047FA
:104E70001E7E00201D7E0020251100201F7E0020A8
:104E8000074B084A1870084B51781B7823EA000337
:104E90000648007818435070401A18BF0120704728
:104EA0001D7E0020251100201F7E00201E7E002078
:104EB000074B084900221A70074B084A1B780978EB
:104EC00050780B43181A537018BF0120704700BF69
:104ED0001D7E00201E7E00201F7E00202511002048
:104EE000A0F1E003072B03D82030C0B2FFF736BF94
:104EF000064B062213F8011F19B1013AFAD100201E
:104F0000704718700028F8D0F9E700BF271100207B
:104F1000A0F1E003072B10B405D820305DF8044B56
:104F2000C0B2FFF741BF0023064A194612F8014FED
:104F30000133A04208BF1170062BF7D100205DF8A5
:104F4000044B704727110020A0F1E003072B03D882
:104F50002030C0B2FFF756BF064A002312F8011FE7
:104F6000884204D00133062BF8D10020704701207D
:104F7000704700BF27110020024B00221A605A60C0
:104F8000704700BF2611002010B50849002301EB2F
:104F90004302B2F8014024B10133062BF7D10020BF
:104FA00010BDA2F801000028F6D0F8E71811002083
:104FB00030B50023074C194604EB43020133B2F825
:104FC0000150854204BF51709170062BF4D100202E
:104FD00030BD00BF18110020024B00221A605A6039
:104FE0009A60704719110020074A002302EB430121
:104FF000B1F80110814204D00133062BF6D1002014
:1050000070470120704700BF18110020004870470A
:105010002511002000487047181100202DE9F041AB
:105020000B4E337883B10B4CDFF82C80002542F215
:105030000F772046414601352BF0DDFC0A2D44F860
:10504000207C04F15804F4D100203070BDE8F081D8
:105050002E110020301D00208F8502000B4A30B534
:1050600000230446282000FB03F18D18515C41B950
:105070000FCC0FC50FCC0FC594E8030085E80300E3
:1050800030BD0133282BEED1FAE700BFD016002047
:1050900010B5C269037ED17D8EB0044609B1032BE1
:1050A00034D0023B012B517D07D800292ED1204658
:1050B0000EB0BDE8104023F047BA21B1937D13B97B
:1050C000204623F0D4F90023CDE90333069305935A
:1050D000E36922689B680393D4E90401A3680493FD
:1050E0000B4B0792C3E90201CDE908011A6006AB38
:1050F0000FCB0AAC84E80F000EAB13E903008DE878
:10510000030003A894E80C0023F0D4F90EB010BDFE
:10511000000000202DE9F843027E0346002A6ED1EC
:105120003B4D2A6882426AD1D269547D24B119B9B3
:10513000BDE8F84323F008BA107D032828D8DFE83B
:1051400000F0020E1F600139042921D8DFE801F0C8
:105150001E0320051E00022119E0032117E001397A
:10516000042915D801A050F821F000BF8D5100008E
:1051700091510000575100005B5100008D5100001B
:105180000429EAD001F0FB01012901D1012119769E
:10519000197EA1B3D06900280DDD5C6D611C0AD0B9
:1051A0001C32002152F8046FA64204D0013188421B
:1051B000F8D101221A76002218462A60FFF768FF0C
:1051C0002C68E4B9134EDFF85080A14616F8087C2D
:1051D000AFB12B6806F8089C23B14FF4A4700021EE
:1051E00022F03CF9012F01D0022F03D14146304675
:1051F000FFF7F4FB0134282C06F12806E6D1BDE8C0
:10520000F8830229A7D0BFD904390129BED9BFE745
:10521000B0430020D8160020281D030082B02DE9DD
:10522000F0412F4E06A981E80C000024582202FB11
:1052300004F0851931588B424AD1203030442BF08C
:10524000E8FBEB691968D5E904238A1843EBE1739D
:1052500008998A42099A9341804603DA0421284634
:10526000FFF758FF582707FB046701212846FFF77F
:1052700051FFFB69DB7D53B13B7E032B07D12846F1
:1052800023F032F9012328463B76FFF701FF284639
:1052900023F02AF9582303FB0463DB695A7D22B10A
:1052A0009B7D13B1284623F0E2F818F1770F4FF0F9
:1052B00058031DBF5C4342F20F72331903FB0463B2
:1052C00017BF3251012200221A7683F8502002E0E3
:1052D00001340A2CABD1BDE8F041002002B0704788
:1052E000101D002082B02DE9F84F05460AA900687C
:1052F00081E80C0022F08DFF3A490C6802469CB907
:10530000D5E9019ADDE90CC0DDF82CE0364F4FF00D
:10531000580842F20F7B08FB04F6F519BB595B45B0
:1053200007D001340A2CF6D1BDE8F84F002002B0B6
:105330007047D2F8048047F806E0C5E9019A0023D7
:10534000C5E904C0DFF8A4902B764FF0FF33C5F811
:105350001C806B650D60D9E90221D8F8103013EB81
:10536000020A41EBE373D44570EB03030CDBD9F87D
:1053700000309E450CD1D8F80C309A1841EBE371FF
:10538000944570EB010103DA05212846FFF7C2FEC0
:1053900000212846FFF7BEFE582303FB0474216951
:1053A000D8F800400C442BF0B2FC4FF47A72A0FB0A
:1053B000020302FB0131C30B43EA4143E11A21EA34
:1053C000E17140F2E7304FF47A72002300EBC13014
:1053D0004914FBF795FE203602460B46B81921F01A
:1053E00041FDA1E7B0430020101D00200000002077
:1053F0002DE9F0418AB00446FFF744FC00286CD048
:105400002046FFF73FFC524D47680446002642F213
:105410000F782B689F420CD043450AD0EB69DB7DA7
:105420003BB12B7E032B04D102232B762846FFF7BA
:105430002FFE01360A2E05F15805EAD1454D2868A0
:1054400008B900202CE0C369227A197E914204D069
:10545000426D013204BF6268426501686268914230
:10546000EFD01968D0E904238A1843EBE173D4E93B
:105470000461B2428B4116DB237ADBB10123214662
:1054800002A88DF8003022F00DFF6846FFF7E6FD18
:10549000217A2868C1F10301C9B2FFF73BFE02205F
:1054A0000AB0BDE8F0810421FFF734FE2B68002B21
:1054B000C7D0E1E76068284A11780029C1D00129E6
:1054C00005D15169884202D1117E0029D6D101331C
:1054D000282B02F12802EFD1B3E7204600F080FB31
:1054E0000028DDD0204600F07BFB837A01469BB18B
:1054F0004368E03B072B02D80378072B0CD0174BEF
:10550000D1E90402D3E9025485429441BEBFC3E904
:1055100002024FF000441C600E4B18680028BFD0F8
:105520004B68E03B072B8CD80B78072B89D1C369DC
:105530005B7D13B1007E0028B2D002A802248DF852
:10554000004023F072FA6846FFF788FDA7E700BF26
:10555000101D0020B0430020D016002000000020C5
:1055600070B50D6804460E4628462349FBF732FF06
:1055700010B92072012070BD20492846FBF72AFF90
:1055800010B901232372F5E71D492846FBF722FFD6
:1055900008B90223F6E71B492846FBF71BFF10B9A1
:1055A00073686360E6E718492846FBF713FF10B9F4
:1055B00073682360DEE715492846FBF70BFF10B937
:1055C0000123A373D6E712492846FBF703FF10B95E
:1055D0000123E373CEE70F492846FBF7FBFE08B92A
:1055E0000223EEE70C492846FBF7F4FE08B9022334
:1055F000EFE70020BFE700BF9B470300A54703007C
:10560000B1470300BF470300CE470300DE47030056
:10561000EF47030000480300114803002DE9F84359
:10562000D0F804800769D8F80830DFF848903B616B
:1056300000247B81BC8108F10C06D8F80830A34215
:1056400011D931463846FFF78BFF651C70B93068B9
:105650004946FBF7BFFE48B9ADB27D81D8F80830A6
:105660003C615B1BBB810020BDE8F8832C460C36F7
:10567000E3E700BF224803002DE9F04395B0142270
:1056800000210FA82BF0DDFEDFF8D4804FF47A77ED
:10569000002200230FA9404621F036F9002849D105
:1056A0000F9E02902BF033FBA0FB070C07FB01CCF5
:1056B000C50B45EA4C459DF84C30CDE903654FEAF2
:1056C000DC3C13F0010FCDF814C002AB0FCB06ACDD
:1056D00084E80F000DF128092FD0CDE90765CDF83A
:1056E00024C094E80F0089E80F00109822F091FD83
:1056F00050B183689C683CB1DDE90C018DE8030082
:1057000010A899E80C00A047139C012CC0D9C4F341
:105710005E044FF4004540F2E73000214FF47A7206
:105720000023E5FB0401FBF7EBFC02460B460B48AC
:1057300021F098FB15B0BDE8F083CDE90765CDF801
:1057400024C094E80F0089E80F00109822F061FD52
:105750000028D9D08368DC68CDE700BF10000020A6
:105760008813002010B58AB001AC84E80E0005A8AB
:10577000112200212BF065FE94E8070006AB83E8B8
:1057800007009DF830300D9A43EA42030993094817
:105790000022002305A921F061F8002804DB064857
:1057A0002BF035F910B100200AB010BD0248FFF708
:1057B00063FFF8E7881300201000002008B5094BAC
:1057C0001B7823B1012B06D06FF0850008BDBDE822
:1057D000084023F005BBFFF719FCBDE80840013085
:1057E00000F03ABDCC43002008B5094B1B7823B12B
:1057F000012B06D06FF0850008BDBDE8084023F0FE
:10580000F7BAFFF707FCBDE80840013000F04ABDD9
:10581000CC43002002490348012203F07DB800BFB9
:10582000207E00206348030070B500250646056011
:1058300000F024FB044680B101F04AF9022806D0AA
:1058400000F028FC012370603370304670BD064BB9
:105850001B78012BF4D02846F5E701F039F902282E
:10586000EED123462046EEE7207E002073B503F0FC
:10587000A7F90C4803F0E0F8044678B90A490B4848
:105880000B4E2BF0B8F86D460A4803F07FF8284617
:10589000FFF7CAFF95E8030086E80300204602B040
:1058A00070BD00BFB003002015580000802000200C
:1058B000CC4300207748030082B00DF1080C0CE9BE
:1058C000030019469DF8003010461BB1012B05D08E
:1058D000054A00E0054A02B022F014B9019B044ACF
:1058E00002B022F00FB900BF8C48030081480300CA
:1058F0008548030030B589B001AD0F4C2846FFF74D
:1059000093FF94E80C0095E8030022F0A9FF80B90A
:1059100022F0CDFF95E803000A2305AA84E80300DE
:10592000FFF7CAFF94E8030003AB83E8030000F02D
:1059300023F809B030BD00BFCC43002070B50C4641
:1059400015460B4900221E4624F0B3F908B9002081
:1059500070BD012C08D1074922463046A8470028CF
:10596000F6DDFFF7C7FFF2E76FF01500F0E700BFC5
:105970006D480300207E00207FB56B4683E803005E
:1059800093E80300002206AB03E90300039202A898
:10599000034A029222F03FFC07B05DF804FB00BF0F
:1059A000A81D030005281FB530D830BB11B9002051
:1059B00004B010BD174B1A68012383401343154CE4
:1059C0009A422360F3D08DF800008DF801102BF07F
:1059D0009EF94FF47A72A0FB020302FB0131C00B67
:1059E00040EA4140C90BCDE9020104AB13E90F00C5
:1059F00004B0BDE8104000F0C1B8064B1A68002999
:105A0000DAD10123834022EA0303D8E76FF01500BF
:105A1000CEE700BF5C4400202DE9F04715464FF467
:105A2000CC724A431F460C2303FB05223C4B2DED51
:105A3000028B134480460E4693E807008CB005ACF9
:105A400084E807009DED168B22F0E3FB81460028D9
:105A500060D00598CDE908658DED0A8B22F0D9FB61
:105A60008368D3F804A0BAF1000F09D00CAB13E996
:105A70000300DDE908238DE803002046D04758BB2A
:105A8000D9F808301B78012B13D0022B29D0002B1A
:105A900042D1CDE908658DED0A8B0CAB029713E975
:105AA00003008DE803002B463246204622F068FFB3
:105AB00012E0CDE908658DED0A8B02970AAA92E8FB
:105AC00003008DE8030008ABB8F1FF0F0CCBECD05E
:105AD0002146404623F012F90CB0BDEC028BBDE824
:105AE000F087CDE908658DED0A8B02970AAE96E83E
:105AF00003008DE8030008AD95E80C002146002066
:105B000023F0FCF8029796E803008DE8030095E87F
:105B10000C00CAE70120DFE76FF08500DCE700BF7B
:105B2000B41D03002DE9F34DDDE90AABDFF8488031
:105B300007460D4616461AB10E4B1B6848F8213031
:105B4000052458F82510E0B222F00AFF30B9013CD4
:105B5000F7D26FF0850002B0BDE8F08DCDE900AB63
:105B600033462A4621463846FFF756FF0028F2DD25
:105B7000EDE700BF5C440020D443002010B58AB09C
:105B80006C4684E80F0000230593064B049394E8C9
:105B90000F000AAC04E90F0004A822F03CFB0AB095
:105BA00010BD00BF4427030084B030B589B00CACF1
:105BB00084E80F00002301930CAD084B00930FCD38
:105BC00002AC0FC495E8030084E80300684622F0A5
:105BD00022FB09B0BDE8304004B070474C270300F9
:105BE0000268034B9A420CBF08300020704700BF88
:105BF0004C2703007FB56B4683E8030093E803005E
:105C0000002206AB03E90300039202A8034A0292B2
:105C100022F001FB07B05DF804FB00BF5027030032
:105C2000074B1A78074B82B0162102FB0133019310
:105C30008DF8002002AB13E9030002B0FFF7DABFD2
:105C4000287E0020297E002002490348012202F01C
:105C500063BE00BF287E00202D49030070B5037885
:105C60008AB004460E4607AD032B20D8DFE803F0C8
:105C700002191B1D11492846FBF7B6FB05956378F1
:105C80000493A3780393E3780293237901936379D0
:105C90000093A3790A4A1E21304621F033FF0AB04F
:105CA00070BD0849E7E70849E5E70849E3E7084A1E
:105CB0000A21284621F026FFE0E700BF4049030003
:105CC00069490300474903004E490300584903004E
:105CD000624903002DE9F0418AB00D461646284975
:105CE0006A4604461F4623F0E4FFF8B10098E8B185
:105CF0000A2201A921F0CAFF019B1B7803BB162DC4
:105D00001ED1C4B2042C1BD8DFF888806C432A460D
:105D100008EB04013846B047002813DD04F10F00FA
:105D200002A94044FFF79AFF00200BE015496A469C
:105D3000204623F0BEFF78B1009B6BB9012D04D043
:105D40006FF015000AB0BDE8F0810F492A463846C9
:105D5000B04700EAE070F5E70C496A46204623F0B8
:105D6000A8FF0028E0D000980028DDD0072DE7D15B
:105D70002BF017FB0028D7D105492A46E7E700BFDB
:105D80008C49030031490300287E00209549030017
:105D9000217E0020297E002010B592B0044626F016
:105DA000A2FB01A9FFF75AFF09A9204606F042FE0F
:105DB0009DF82530012B13D10A4820F0EBFF204637
:105DC00026F091FB084B19780F22162313FB0123B1
:105DD0000649194422F038FE10B9054820F0DAFFD0
:105DE00012B010BD2C040020287E0020297E002047
:105DF0003C04002008B5074B074819780F221623EA
:105E000013FB01231844054922F01EFEB0FA80F06E
:105E1000400908BD287E0020297E0020DB4C0300BD
:105E20002DE9F0410C468EB005464FF0160806A944
:105E3000204615FB08F7FFF711FF0D4E216807F10B
:105E40000F029319B150A2889A80A2799A710949D8
:105E50002A4601A821F082FE4246F11901A802F06B
:105E60005BFD054820F096FF0EB0BDE8F08100BF55
:105E7000297E0020AA4903003C04002010B5124BE3
:105E800012491A7816240F2314FB0234104B1C44B9
:105E90008AB0204622F0D8FD10B900200AB010BD0B
:105EA0002146002006F046FD04460028F5D001A951
:105EB00006F0C0FD204626F0F8F99DF82400831E68
:105EC00058425841EAE700BF287E0020DB4C03001F
:105ED000297E0020F0B58DB0FFF78CFF98B9FFF751
:105EE000CDFF80F001035B00DBB2214D2A7803EB8C
:105EF0000213112B09DC022B2DD0102B23D00024F0
:105F000020460DB0F0BD0223EFE7202B1BD0122B53
:105F1000F5D105F0C5FC00232B7004460028EFD115
:105F2000144F0FCF02AE0FC63B68134933600422F3
:105F30000094234602A805F081FC04460028DFD126
:105F400002232B70DBE705F0ABFC00232B7004462B
:105F50000028D4D0D4E7074E0FCE07AC0FC4336867
:105F60002360002304490093042207A8E3E700BF4D
:105F7000977E0020F01A03005427030030B593B039
:105F8000054626F0B0FA01A90446FFF767FE09A905
:105F9000284606F04FFD9DF82530012B05D1FFF76F
:105FA00029FF214618B904F095FD13B030BD034B0D
:105FB0001878FFF735FFFFF78DFFF6E7287E002002
:105FC00030B593B00D4609A9044606F033FD9DF89F
:105FD0002530012B0BD1204626F085FA01A9FFF7C9
:105FE0003DFE0E4B00221A701DB1FFF773FF13B078
:105FF00030BDFFF76FFF204626F075FA084B197881
:106000000F22162313FB01230649194422F01CFD1D
:106010000028ECD1044820F0BDFEE8E7977E002080
:10602000287E0020297E00203C04002010B500209E
:1060300004F06CFE0446D8B902F0C2FD0D4802F02F
:10604000FBFC0446A0B90C490C482AF0D4FC0C48CF
:1060500002F09CFC0B4802F099FC0B4806F044FC53
:106060000A4806F03FFF0A4806F056FFFFF732FFE6
:10607000204610BD14040020495C0000B020002020
:10608000BA490300BE490300F4030020D8030020EE
:10609000C8030020014B1878704700BF287E0020FD
:1060A000044B054819780F22162313FB01231844CB
:1060B000704700BF287E0020297E002070B5164D55
:1060C00090B004460146284622F0BEFCE8B108A97B
:1060D0002846FFF7C3FD1149284622F0B5FC0646C5
:1060E000B0B969462046FFF7B9FD23682B60A38845
:1060F000AB80A3790A49AB71324608A821F02EFD86
:106100000722214608A802F007FC002010B070BD4D
:106110006FF00B00FAE700BF217E0020DB4C03008C
:10612000C14903001FB54D240294044C0194BDF8ED
:106130001840009427F0FEFC04B010BDFB4903009A
:1061400007B5064B00930649064805234FF44072F5
:1061500020F026FE002003B05DF804FB7427030046
:1061600060810020E020002010B5FFF799FF06496C
:10617000072204462BF019F928B121460020BDE87A
:10618000104006F0D7BB10BDDB4C0300F0B5164E37
:10619000164F89B0002200236946304620F0B4FB38
:1061A000054608B109B0F0BDFFF7DEFF0446002840
:1061B000F8D01822294602A82BF043F908230DEB4A
:1061C000030120460397CDF810D0ADF8143008F045
:1061D000EBFD013003D10221204626F00AF92046CA
:1061E00026F063F8D6E700BFE8130020E02703009D
:1061F0002DE9F041164FDFF85C808AB001AE002235
:1062000000233146384620F07FFB054610B10AB026
:10621000BDE8F081FFF7A8FF04460028F7D0182258
:10622000294604A82BF00DF90C2304A92046CDE93A
:106230000586ADF81C3008F0B7FD013003D102210E
:10624000204626F0D6F8204626F02FF8D7E700BFE4
:10625000B81300203028030037B5054640F6CD427C
:10626000014600230C4820F0F9FA044678B110F1F9
:106270000B0F09D1002200236946074820F044FB98
:106280002846FFF7E9FF0446204603B030BD034926
:1062900003482AF099FBF7E7E81300205C0400208C
:1062A000E020002030B5054685B040F6CD420146DD
:1062B00000230D4820F0D2FA044678B110F10B0FFC
:1062C00009D10022002301A9074820F01DFB284620
:1062D000FFF7E8FF0446204605B030BD03490448F7
:1062E0002AF072FBF7E700BFB81300204C0400202F
:1062F000E02000201FB50023CDE90233044B8DF8C8
:106300000C0001A8019321F086FF05B05DF804FBA5
:10631000C428030008B500F09DFFBDE8084001490E
:106320002AF052BB2C05002007B508482AF0FFF8D8
:1063300048B14FF4F0120023CDE9002304480022B5
:10634000002321F007FB03B05DF804FB881803006D
:106350005012002008B5FEF76FFC10B96FF08500F1
:1063600008BDFEF765FA38B10138C0B20128F5D88A
:1063700003482AF013FD01E0FFF7D6FF0020EFE706
:106380005012002037B50E4CA5682D21EB68204631
:10639000984790B92D212B696A462046984760B9E5
:1063A000084C00982378834207D0C0B2207002F0D6
:1063B0008BFA10B92078FFF79DFF03B030BD00BF06
:1063C00088180300997E002008B505482AF0AFF828
:1063D00018B1FFF7A9FF002008BD6FF01200FBE71E
:1063E0008818030030B50C4B187887B090B90B4A69
:1063F00052686AB90A4D01221A700FCD01AC0FC460
:106400002B680849236001A805F0ACFC00EAE070A5
:1064100007B030BD0020FBE79A7E002060440020DA
:10642000041B03003169000007B5002307490093EE
:106430004FF400720523064820F0B2FC054806F030
:1064400053FA03B05DF804EBFFF7CCBF6084002083
:10645000C82100204C05002084B010B588B00AACDB
:1064600084E80F001148214640F6CD42002320F079
:10647000F5F90446A8B110F10B0F0CD1002200234E
:1064800003A90A4820F040FA0E9B00930AAB0FCBF9
:10649000FFF7E2FF0446204608B0BDE8104004B014
:1064A0007047034903482AF08FFAF4E748140020A4
:1064B0003C050020C821002070B503788AB004464E
:1064C0000E4607AD032B20D8DFE803F002191B1D91
:1064D00011492846FAF788FF059563780493A37855
:1064E0000393E37802932379019363790093A3796B
:1064F0000A4A1E21304621F005FB0AB070BD08494A
:10650000E7E70849E5E70849E3E7084A0A2128469A
:1065100021F0F8FAE0E700BF4049030069490300B1
:10652000474903004E4903005849030062490300EC
:1065300030B50B4D89B002AC00220023214628461D
:1065400020F0E2F908B109B030BD08AB13E903004F
:106550008DE8030094E80F00FEF778FBECE700BF3E
:106560005813002070B5114E114C8AB00022002340
:1065700005A9304620F0C8F908B10AB070BD9DF8F1
:106580001430A4225343E518E35C022BEED1B5F896
:1065900080100029EAD0CDE901000123009368684A
:1065A00013230DF1150227F02BFEDFE7481400201E
:1065B00060440020034B5B68834214BF6FF01500FA
:1065C000002070476044002008B5FFF7F3FF031E6A
:1065D000A3BF0348A42202FB0300002008BD00BFA4
:1065E00060440020F0B5134687B0064631B9182242
:1065F00018462AF026FF002007B0F0BDFFF7E4FFA1
:1066000004460028F7D0114B876801AA03F1100E49
:10661000944618685968154603C5083373452A46D9
:10662000F7D11B782B706146384624F09AFE08B1EA
:106630000120E1E7064BE3600323A060237604F129
:106640000801304608F0BAFCD5E700BF181B03006C
:10665000556600002DE9F04107468AB00D46002935
:1066600059D0C968002958D0FFF7AEFF044680B35F
:106670002B4BD1F800806A4603F1100E944618683F
:106680005968164603C6083373453246F7D11B785E
:1066900033706146404624F064FEE8B904F16803B3
:1066A0006363E38A2386284627F05BFA1D4B236247
:1066B0000123A085238704F12001384608F090FECD
:1066C000B4F880301BB1A38D003B18BF012383F0C9
:1066D00001000AB0BDE8F081134B05AA03F1100CCC
:1066E000174618685968164603C60833634532468C
:1066F000F7D11B7833703946404624F032FE00282B
:10670000DED1A0602B8A02332382284627F029FAA3
:10671000A4F88000D4E70846DBE70846D9E700BFC5
:10672000291B03002D6700003A1B03002DE9F047E9
:1067300086B007461446FFF747FF002851D024B91A
:106740008C81204606B0BDE8F087631E00F181020F
:106750000F3413F8011F12F8015F694011741978A2
:106760001170A342F5D1DFF88090DFF880A000F12E
:10677000920400264FF0010800252378EB40DB0748
:1067800027D514F8101C08FA05F31942384614BF2F
:1067900001210021FFF70EFFAA198DF800000192D8
:1067A0008DF808102AF0B3FA4FF47A72A0FB0203B6
:1067B00002FB0131C00B40EA4140C90BCDE90401A5
:1067C000002200236946484620F048F8504620F051
:1067D000E1FA0135082DD0D10836802E04F10104EC
:1067E000CAD10120AEE700BF581300206C0500207D
:1067F0002DE9F047044686B0002846D1244D2B7879
:10680000002B42D0686810B125F04FFD6C60002469
:10681000204FDFF88490DFF884A02C70A04600267B
:106820003B78F340DB071CD533198DF800800193CA
:106830008DF808802AF06BFA4FF47A72A0FB0203FD
:1068400002FB0131C00B40EA4140C90BCDE9040114
:10685000002200236946484620F000F8504620F008
:1068600099FA0136082EDBD10834802C07F1010794
:10687000D5D10848202200212AF0E3FD0020A88578
:10688000A5F8800006B0BDE8F0876FF01500F9E7C5
:1068900060440020E2440020581300206C050020D2
:1068A00070B5FFF70BFC041E0ADBA425064E6543FA
:1068B000735D2BB9FFF79CFF01237355204670BD14
:1068C0006FF00B04FAE700BF6044002070B586B09B
:1068D0000646FFF7E5FF041E20DB124B00221A706C
:1068E00005F0C0FA002819DB0F4B986CD96C6A468A
:1068F00003C2503315460FCB85E80F000B4BA42283
:1069000002FB043329466A46304606F0F5F80028B3
:1069100004DA2046FFF76CFFFFF764FD002006B0A5
:1069200070BD00BF9A7E0020041B03006444002059
:1069300070B588B01546694604461E46FFF7BCFD93
:1069400035B906492246304624F076FD08B070BDC0
:10695000012DFBD12046FFF7B9FFF7E76169000081
:10696000F0B50378063B012BA5B005460E4602D9CB
:10697000012025B0F0BD447814F00F04F8D16B78F5
:106980009C42F5DA69681022214401A824F017FD21
:1069900070B31A4B06AA03F1100796461868596897
:1069A0009446ACE803000833BB426246F6D11B783C
:1069B0008CF80030714601A824F0D3FCD0B1252218
:1069C00010A901A803F042FB0BAA0C4B96461868CD
:1069D00059689446ACE803000833BB426246F6D1DE
:1069E0001B788CF8003025221AA9704603F02EFB84
:1069F0001034C4E73046FFF769FFBAE7181B0300FD
:106A000008B5FFF7D7FD002805DBA4235843024B48
:106A100002221A54002008BD6044002030B59BB00B
:106A200004460D4625F05FFD6946FFF745FD08A9C0
:106A3000204605F0FFFF9DF821302BB920462DB1EF
:106A400022F041F9FFF7CEFC1BB030BDFFF7D8FFB5
:106A50002046FFF7B9FD0028F6D0838D23B111A998
:106A6000204605F0E7FFEDE7084A8260084AC26069
:106A7000012202824FF6FF72C282037600F1080102
:106A8000406808F09BFA0028E9D0DDE7AB4A030034
:106A9000E565000008B5044801F03EFC002818BF79
:106AA0006FF0150008BD00BFAD6A00000A2804D0D1
:106AB000024B1870024820F06DB970473E1100205B
:106AC0007C050020014B1878704700BF3E11002064
:106AD000084B1B780B2B4FF001000AD8984010F49C
